{
  "contractName": "ZombieFactory",
  "abi": [
    {
      "constant": true,
      "inputs": [
        {
          "name": "",
          "type": "uint256"
        }
      ],
      "name": "zombies",
      "outputs": [
        {
          "name": "name",
          "type": "string"
        },
        {
          "name": "dna",
          "type": "uint256"
        }
      ],
      "payable": false,
      "stateMutability": "view",
      "type": "function"
    },
    {
      "constant": false,
      "inputs": [
        {
          "name": "name",
          "type": "string"
        }
      ],
      "name": "createRandomZombie",
      "outputs": [],
      "payable": false,
      "stateMutability": "nonpayable",
      "type": "function"
    },
    {
      "constant": true,
      "inputs": [],
      "name": "getZombie",
      "outputs": [
        {
          "name": "count",
          "type": "uint256"
        },
        {
          "name": "name",
          "type": "string"
        },
        {
          "name": "dna",
          "type": "uint256"
        }
      ],
      "payable": false,
      "stateMutability": "view",
      "type": "function"
    },
    {
      "anonymous": false,
      "inputs": [
        {
          "indexed": false,
          "name": "zombieId",
          "type": "uint256"
        },
        {
          "indexed": false,
          "name": "name",
          "type": "string"
        },
        {
          "indexed": false,
          "name": "dna",
          "type": "uint256"
        }
      ],
      "name": "NewZombie",
      "type": "event"
    }
  ],
  "bytecode": "0x60606040526010600055600054600a0a600155341561001d57600080fd5b61076f8061002c6000396000f300606060405260043610610057576000357c0100000000000000000000000000000000000000000000000000000000900463ffffffff1680632052465e1461005c5780637bff0a011461011c578063a592a45114610179575b600080fd5b341561006757600080fd5b61007d6004808035906020019091905050610215565b604051808060200183815260200182810382528481815460018160011615610100020316600290048152602001915080546001816001161561010002031660029004801561010c5780601f106100e15761010080835404028352916020019161010c565b820191906000526020600020905b8154815290600101906020018083116100ef57829003601f168201915b5050935050505060405180910390f35b341561012757600080fd5b610177600480803590602001908201803590602001908080601f01602080910402602001604051908101604052809392919081815260200183838082843782019150505050505091905050610247565b005b341561018457600080fd5b61018c610273565b6040518084815260200180602001838152602001828103825284818151815260200191508051906020019080838360005b838110156101d85780820151818401526020810190506101bd565b50505050905090810190601f1680156102055780820380516001836020036101000a031916815260200191505b5094505050505060405180910390f35b60028181548110151561022457fe5b906000526020600020906002020160009150905080600001908060010154905082565b600061025282610397565b905060648181151561026057fe5b068103905061026f8282610419565b5050565b600061027d6105d9565b6000806000600460003373ffffffffffffffffffffffffffffffffffffffff1673ffffffffffffffffffffffffffffffffffffffff168152602001908152602001600020549150600260008154811015156102d457fe5b9060005260206000209060020201905081816000018260010154818054600181600116156101000203166002900480601f0160208091040260200160405190810160405280929190818152602001828054600181600116156101000203166002900480156103835780601f1061035857610100808354040283529160200191610383565b820191906000526020600020905b81548152906001019060200180831161036657829003601f168201915b505050505091509450945094505050909192565b600080826040518082805190602001908083835b6020831015156103d057805182526020820191506020810190506020830392506103ab565b6001836020036101000a03801982511681845116808217855250505050505090500191505060405180910390206001900490506001548181151561041057fe5b06915050919050565b600060016002805480600101828161043191906105ed565b916000526020600020906002020160006040805190810160405280888152602001878152509091909150600082015181600001908051906020019061047792919061061f565b50602082015181600101555050039050336003600083815260200190815260200160002060006101000a81548173ffffffffffffffffffffffffffffffffffffffff021916908373ffffffffffffffffffffffffffffffffffffffff160217905550600460003373ffffffffffffffffffffffffffffffffffffffff1673ffffffffffffffffffffffffffffffffffffffff168152602001908152602001600020600081548092919060010191905055507f88f026aacbbecc90c18411df4b1185fd8d9be2470f1962f192bf84a27d0704b78184846040518084815260200180602001838152602001828103825284818151815260200191508051906020019080838360005b8381101561059857808201518184015260208101905061057d565b50505050905090810190601f1680156105c55780820380516001836020036101000a031916815260200191505b5094505050505060405180910390a1505050565b602060405190810160405280600081525090565b81548183558181151161061a57600202816002028360005260206000209182019101610619919061069f565b5b505050565b828054600181600116156101000203166002900490600052602060002090601f016020900481019282601f1061066057805160ff191683800117855561068e565b8280016001018555821561068e579182015b8281111561068d578251825591602001919060010190610672565b5b50905061069b91906106d6565b5090565b6106d391905b808211156106cf57600080820160006106be91906106fb565b6001820160009055506002016106a5565b5090565b90565b6106f891905b808211156106f45760008160009055506001016106dc565b5090565b90565b50805460018160011615610100020316600290046000825580601f106107215750610740565b601f01602090049060005260206000209081019061073f91906106d6565b5b505600a165627a7a7230582056bcc8a7c150e8e82603e66d35ec42c07797c5015e233cafce69692eadc7caad0029",
  "source": "pragma solidity ^0.4.17;\n\ncontract ZombieFactory{\n    //新僵尸创建完成触发的事件\n    event NewZombie(uint zombieId, string name, uint dna);\n\tuint dnaDigits  = 16;\n\tuint dnaModulus = 10 ** dnaDigits;\n\n\tstruct Zombie{\n\t   string name;\n\t   uint dna;\n\t}\n\t//结构体数组\n\tZombie[] public zombies;\n\t//属于谁的僵尸,Dna跟地址绑定\n\tmapping(uint => address) zombieToOwner;\n\t//地址下僵尸数量\n\tmapping(address => uint) ownerZombieCount;\n\n\t//创建僵尸\n\tfunction _createZombie(string _name, uint _dna) internal{\n\t    uint id = zombies.push(Zombie(_name, _dna)) - 1;\n\t    zombieToOwner[id] = msg.sender;\n\t    ownerZombieCount[msg.sender]++;\n\t    NewZombie(id , _name , _dna);\n\t}\n\t//创建僵尸Dna\n\tfunction _generateRandomDna(string _name) private view returns(uint){\n\t    uint rand = uint(keccak256(_name));\n\n\t    return rand % dnaModulus;\n\t}\n\t//创建僵尸\n\tfunction createRandomZombie(string name) public{\n\t    //require(ownerZombieCount[msg.sender] >= 0);\n\t    uint randDna = _generateRandomDna(name);\n\t    randDna = randDna - randDna % 100;\n\t    _createZombie(name , randDna);\n\t}\n\n\t//\n\tfunction getZombie() public view returns(uint count,string name,uint dna){\n\t   uint zombieCount = ownerZombieCount[msg.sender];\n\t   Zombie storage zombie = zombies[0];\n\n\t   return (zombieCount, zombie.name,zombie.dna);\n\t}\n}",
  "sourcePath": "/Users/u-en/Desktop/ZombieFactory/contracts/ZombieFactory.sol",
  "compiler": {
    "name": "solc",
    "version": "0.4.18+commit.9cf6e910.Emscripten.clang"
  },
  "schemaVersion": "1.0.1",
  "updatedAt": "2018-06-05T01:53:12.845Z"
}