{
  "contractName": "ZombieFeeding",
  "abi": [
    {
      "constant": false,
      "inputs": [
        {
          "name": "_zombieId",
          "type": "uint256"
        },
        {
          "name": "_kittyId",
          "type": "uint256"
        }
      ],
      "name": "feedOnKitty",
      "outputs": [],
      "payable": false,
      "stateMutability": "nonpayable",
      "type": "function"
    },
    {
      "constant": true,
      "inputs": [
        {
          "name": "",
          "type": "uint256"
        }
      ],
      "name": "zombies",
      "outputs": [
        {
          "name": "name",
          "type": "string"
        },
        {
          "name": "dna",
          "type": "uint256"
        }
      ],
      "payable": false,
      "stateMutability": "view",
      "type": "function"
    },
    {
      "constant": false,
      "inputs": [
        {
          "name": "_zombieId",
          "type": "uint256"
        },
        {
          "name": "_targetDna",
          "type": "uint256"
        },
        {
          "name": "_species",
          "type": "string"
        }
      ],
      "name": "feedAndMultiply",
      "outputs": [],
      "payable": false,
      "stateMutability": "nonpayable",
      "type": "function"
    },
    {
      "constant": false,
      "inputs": [
        {
          "name": "name",
          "type": "string"
        }
      ],
      "name": "createRandomZombie",
      "outputs": [],
      "payable": false,
      "stateMutability": "nonpayable",
      "type": "function"
    },
    {
      "constant": true,
      "inputs": [],
      "name": "getZombie",
      "outputs": [
        {
          "name": "count",
          "type": "uint256"
        },
        {
          "name": "name",
          "type": "string"
        },
        {
          "name": "dna",
          "type": "uint256"
        }
      ],
      "payable": false,
      "stateMutability": "view",
      "type": "function"
    },
    {
      "anonymous": false,
      "inputs": [
        {
          "indexed": false,
          "name": "zombieId",
          "type": "uint256"
        },
        {
          "indexed": false,
          "name": "name",
          "type": "string"
        },
        {
          "indexed": false,
          "name": "dna",
          "type": "uint256"
        }
      ],
      "name": "NewZombie",
      "type": "event"
    }
  ],
  "bytecode": "0x60606040526010600055600054600a0a6001557306012c8cf97bead5deae237070f9587f8e7a266d600560006101000a81548173ffffffffffffffffffffffffffffffffffffffff021916908373ffffffffffffffffffffffffffffffffffffffff160217905550600560009054906101000a900473ffffffffffffffffffffffffffffffffffffffff16600660006101000a81548173ffffffffffffffffffffffffffffffffffffffff021916908373ffffffffffffffffffffffffffffffffffffffff16021790555034156100d557600080fd5b610b43806100e46000396000f30060606040526004361061006d576000357c0100000000000000000000000000000000000000000000000000000000900463ffffffff16806317a7f4cc146100725780632052465e1461009e5780636b0bfc801461015e5780637bff0a01146101cd578063a592a4511461022a575b600080fd5b341561007d57600080fd5b61009c60048080359060200190919080359060200190919050506102c6565b005b34156100a957600080fd5b6100bf6004808035906020019091905050610433565b604051808060200183815260200182810382528481815460018160011615610100020316600290048152602001915080546001816001161561010002031660029004801561014e5780601f106101235761010080835404028352916020019161014e565b820191906000526020600020905b81548152906001019060200180831161013157829003601f168201915b5050935050505060405180910390f35b341561016957600080fd5b6101cb600480803590602001909190803590602001909190803590602001908201803590602001908080601f01602080910402602001604051908101604052809392919081815260200183838082843782019150505050505091905050610465565b005b34156101d857600080fd5b610228600480803590602001908201803590602001908080601f0160208091040260200160405190810160405280939291908181526020018383808284378201915050505050509190505061061b565b005b341561023557600080fd5b61023d610647565b6040518084815260200180602001838152602001828103825284818151815260200191508051906020019080838360005b8381101561028957808201518184015260208101905061026e565b50505050905090810190601f1680156102b65780820380516001836020036101000a031916815260200191505b5094505050505060405180910390f35b6000600660009054906101000a900473ffffffffffffffffffffffffffffffffffffffff1673ffffffffffffffffffffffffffffffffffffffff1663e98b7f4d83600060405161014001526040518263ffffffff167c01000000000000000000000000000000000000000000000000000000000281526004018082815260200191505061014060405180830381600087803b151561036357600080fd5b6102c65a03f1151561037457600080fd5b505050604051805190602001805190602001805190602001805190602001805190602001805190602001805190602001805190602001805190602001805190509091929394959697985090919293949596975090919293949596509091929394955090919293945090919293509091925090915090508091505061042e83836040805190810160405280600581526020017f6b69747479000000000000000000000000000000000000000000000000000000815250610465565b505050565b60028181548110151561044257fe5b906000526020600020906002020160009150905080600001908060010154905082565b6000806003600086815260200190815260200160002060009054906101000a900473ffffffffffffffffffffffffffffffffffffffff1673ffffffffffffffffffffffffffffffffffffffff163373ffffffffffffffffffffffffffffffffffffffff161415156104d557600080fd5b6002858154811015156104e457fe5b906000526020600020906002020191506001548481151561050157fe5b06935060028260010154850181151561051657fe5b04905060405180807f6b697474790000000000000000000000000000000000000000000000000000008152506005019050604051809103902060001916836040518082805190602001908083835b6020831015156105895780518252602082019150602081019050602083039250610564565b6001836020036101000a03801982511681845116808217855250505050505090500191505060405180910390206000191614156105d55760636064828115156105ce57fe5b0682030190505b6106146040805190810160405280600681526020017f4e6f4e616d6500000000000000000000000000000000000000000000000000008152508261076b565b5050505050565b60006106268261092b565b905060648181151561063457fe5b0681039050610643828261076b565b5050565b60006106516109ad565b6000806000600460003373ffffffffffffffffffffffffffffffffffffffff1673ffffffffffffffffffffffffffffffffffffffff168152602001908152602001600020549150600260008154811015156106a857fe5b9060005260206000209060020201905081816000018260010154818054600181600116156101000203166002900480601f0160208091040260200160405190810160405280929190818152602001828054600181600116156101000203166002900480156107575780601f1061072c57610100808354040283529160200191610757565b820191906000526020600020905b81548152906001019060200180831161073a57829003601f168201915b505050505091509450945094505050909192565b600060016002805480600101828161078391906109c1565b91600052602060002090600202016000604080519081016040528088815260200187815250909190915060008201518160000190805190602001906107c99291906109f3565b50602082015181600101555050039050336003600083815260200190815260200160002060006101000a81548173ffffffffffffffffffffffffffffffffffffffff021916908373ffffffffffffffffffffffffffffffffffffffff160217905550600460003373ffffffffffffffffffffffffffffffffffffffff1673ffffffffffffffffffffffffffffffffffffffff168152602001908152602001600020600081548092919060010191905055507f88f026aacbbecc90c18411df4b1185fd8d9be2470f1962f192bf84a27d0704b78184846040518084815260200180602001838152602001828103825284818151815260200191508051906020019080838360005b838110156108ea5780820151818401526020810190506108cf565b50505050905090810190601f1680156109175780820380516001836020036101000a031916815260200191505b5094505050505060405180910390a1505050565b600080826040518082805190602001908083835b602083101515610964578051825260208201915060208101905060208303925061093f565b6001836020036101000a0380198251168184511680821785525050505050509050019150506040518091039020600190049050600154818115156109a457fe5b06915050919050565b602060405190810160405280600081525090565b8154818355818115116109ee576002028160020283600052602060002091820191016109ed9190610a73565b5b505050565b828054600181600116156101000203166002900490600052602060002090601f016020900481019282601f10610a3457805160ff1916838001178555610a62565b82800160010185558215610a62579182015b82811115610a61578251825591602001919060010190610a46565b5b509050610a6f9190610aaa565b5090565b610aa791905b80821115610aa35760008082016000610a929190610acf565b600182016000905550600201610a79565b5090565b90565b610acc91905b80821115610ac8576000816000905550600101610ab0565b5090565b90565b50805460018160011615610100020316600290046000825580601f10610af55750610b14565b601f016020900490600052602060002090810190610b139190610aaa565b5b505600a165627a7a72305820fb39e9356558445fa21911e3ac1942fcb41e1eddb11e24993c538f6404a66be70029",
  "source": "pragma solidity ^0.4.17;\n\nimport \"./ZombieFactory.sol\";\ncontract KittyInterface{\n\tfunction getKitty(uint256 _id) external view returns (\n    bool isGestating,\n    bool isReady,\n    uint256 cooldownIndex,\n    uint256 nextActionAt,\n    uint256 siringWithId,\n    uint256 birthTime,\n    uint256 matronId,\n    uint256 sireId,\n    uint256 generation,\n    uint256 genes\n  );\n}\ncontract ZombieFeeding is ZombieFactory{\n    address ckAddress = 0x06012c8cf97BEaD5deAe237070F9587f8E7A266d;\n    KittyInterface kittyContract = KittyInterface(ckAddress);\n\tfunction feedAndMultiply(uint _zombieId,uint _targetDna,string _species) public{\n\t    require(msg.sender == zombieToOwner[_zombieId]);\n\t    \n\t    Zombie storage myZombie = zombies[_zombieId];\n\t    \n\t    _targetDna = _targetDna % dnaModulus;\n\t    uint newDna = (_targetDna + myZombie.dna) / 2;\n\t    if(keccak256(_species) == keccak256(\"kitty\")){\n\t        newDna = newDna - newDna % 100 + 99;\n\t    }\n\n\t    _createZombie(\"NoName\", newDna);\n\t}\n\n\n\tfunction feedOnKitty(uint _zombieId, uint _kittyId) public{\n\t   uint kittyDna;\n\t   (,,,,,,,,,kittyDna) = kittyContract.getKitty(_kittyId);\n\n\t   feedAndMultiply(_zombieId,_kittyId,\"kitty\");\n\t}\n}",
  "sourcePath": "/Users/u-en/Desktop/ZombieFactory/contracts/ZombieFeeding.sol",
  "compiler": {
    "name": "solc",
    "version": "0.4.18+commit.9cf6e910.Emscripten.clang"
  },
  "schemaVersion": "1.0.1",
  "updatedAt": "2018-06-05T01:53:12.841Z"
}